:0600000000000228722F2F
:1009920008000134DE2508002000B1010800230010
:1009A20055309600AA309600951400000000080009
:1009B200FD007D08FB007B08F0007D08FC007C0840
:1009C200F1007D082625080023008C018E01F0012C
:1009D200003088250038031DF52CF0010230FA00A2
:1009E2007A08F10026300C26F7240800240095121C
:1009F20020000E108E1021000E148E1401302400DF
:100A02009600970193019201940116309500951674
:100A120008008B137830210099041A1C0E2D200037
:100A2200A701A70AA601E524CB2448262000220814
:100A320003191D2DB2252000C924200031080319F5
:100A4200162D6325CD242000162DFA007008F20021
:100A5200F3017208F4007308F50074082C00920088
:100A62007A08F200F3017208F6007308F7007608BC
:100A720095007108F200F3017208F8007308F9009A
:100A8200780898000800F3000830F1007108F400BB
:100A9200F5017308F1000730F136890B4D2D7535DC
:100AA2007104F2007208F5000310F30D700875026C
:100AB200031C5D2D7008F5020130F402031D4A2D5E
:100AC200750808002000B001B00A7E2D5530AF0035
:100AD2002F08FB00FC01FC0A2808F92608006630F2
:100AE2002000AF002F08FB00FC01FC0A2808F926B1
:100AF200080020002808D924080020003008013A04
:100B02000319672D033A0319702D7A2D0800F90095
:100B12007008F100F2017908F300F401F30EF40E0B
:100B2200F030F40573080F39F404F030F30571085E
:100B32007307F5007208743DF6007508803EF700F1
:100B42000730763DF8007808230092019207770873
:100B520091019107151315140000000023001308DA
:100B620008002000A2012108013A031DCA2D230812
:100B7200F7007708A7002630F7007708F000023068
:100B8200F8007808F100003093262000B101B10A84
:100B920008002108093A031D08002308F700770816
:100BA200A6002630F7007708F0000230F800780837
:100BB200F100003093260100080021008E168E15E8
:100BC2000C152C009301960199019201950198014F
:100BD200910194019701FF3020009B009110FC309D
:100BE2009C051C152C009317961799172000911C31
:100BF200F72D21008E128E110C112C0013171617CF
:100C020019171312161219129312961299129201AF
:100C1200950198010800F6007008F200F301F20E47
:100C2200F30EF030F30572080F39F304F030F205D9
:100C32007208803EF4000730733DF50011307102F6
:100C4200031808000830700203180800F10803199D
:100C52000800750823009201920774089101910718
:100C62000130F4070030F53D1513151400000000A3
:100C720023001308F20076088600870172088100BB
:100C82000130F2007208F6070130F102272E20002F
:100C9200911D0800911124001108F0007008F20063
:100CA200941A7C2E0030F21C0130F00070082000F3
:100CB200A4007208F0000230F036890B5D2E700835
:100CC200F1007108A1002108033A031D6D2EA00155
:100CD200A00A24009101752E20002108023A031D6A
:100CE200752E27082400910020002108033A0319D9
:100CF2008E2EA0018E2E2000A00124080319882E1A
:100D02007208F0007008A800B101B10A8E2E7208B4
:100D1200F0007008A300A201A20A2400161C080019
:100D220015160800F4007408F200F301F20EF30E37
:100D3200F030F30572080F39F304F030F20572084F
:100D4200803EF5000730733DF60011307102031842
:100D52000800083074020318080076082300920184
:100D62009207750891019107151315161515D024D0
:100D72002300151102307102031CE02E76082300B5
:100D8200920192077508910191070130F507003031
:100D9200F63D7008860087010108F200F30172082F
:100DA2009300730894000130F2007208F007951660
:100DB200151315121515D0240130F102BB2E760839
:100DC200230092019207750891019107700886002D
:100DD20087010108F200F30172089300730894007E
:100DE2009512151315121515D024230015080800A5
:100DF2002000AC007B08A9002908F0002C0844253B
:100E02002000AA00AB012A08AD002B08AE00AC08F6
:100E1200031D132F7C080319132FF001F101003079
:100E2200262508007B0820002C020318232F2D08FA
:100E3200A9002908F000F1012D03FF3A7B07FF3ECC
:100E4200262508007B082000A900AA01A935AA0DC1
:100E52002A08803A803C031D302F29082C020318EF
:100E6200412F20002D03FF3A7B07FF3EA9002908EE
:100E7200F0002D08AA002A08F100003026250800FB
:100E820020002C08FF3A031D492FFC08031D662F82
:100E9200FC08031D5B2F2C08FF3A031D5B2F2E0855
:100EA2002D04031D5B2F7B08FF3EAD00FF300318AE
:100EB2000030AE00F0012D03FF3A7B07FF3EA90090
:100EC2002908F1002D08262508001C302000A90061
:100ED2002908F0001C30AA002A08F1001C3026253F
:100EE2000800A001A101A201A301A401A501A6017C
:0E0EF200A701A801CA24B1007E1020000A2D1D
:020000040001F9
:04000E00A4FFFFDF6D
:00000001FF
